{
  "_format": "hh-sol-artifact-1",
  "contractName": "ShyftLPStaking",
  "sourceName": "contracts/ShyftLPStaking.sol",
  "abi": [
    {
      "inputs": [
        {
          "internalType": "contract IERC20",
          "name": "_shyftContractAddress",
          "type": "address"
        },
        {
          "internalType": "uint256",
          "name": "_shyftPerBlock",
          "type": "uint256"
        },
        {
          "internalType": "uint256",
          "name": "_startBlock",
          "type": "uint256"
        }
      ],
      "stateMutability": "nonpayable",
      "type": "constructor"
    },
    {
      "anonymous": false,
      "inputs": [
        {
          "indexed": true,
          "internalType": "address",
          "name": "from",
          "type": "address"
        },
        {
          "indexed": false,
          "internalType": "uint256",
          "name": "amount",
          "type": "uint256"
        }
      ],
      "name": "ContractFunded",
      "type": "event"
    },
    {
      "anonymous": false,
      "inputs": [
        {
          "indexed": true,
          "internalType": "address",
          "name": "user",
          "type": "address"
        },
        {
          "indexed": true,
          "internalType": "uint256",
          "name": "pid",
          "type": "uint256"
        },
        {
          "indexed": false,
          "internalType": "uint256",
          "name": "amount",
          "type": "uint256"
        }
      ],
      "name": "Deposit",
      "type": "event"
    },
    {
      "anonymous": false,
      "inputs": [
        {
          "indexed": true,
          "internalType": "address",
          "name": "user",
          "type": "address"
        },
        {
          "indexed": true,
          "internalType": "uint256",
          "name": "pid",
          "type": "uint256"
        },
        {
          "indexed": false,
          "internalType": "uint256",
          "name": "amount",
          "type": "uint256"
        }
      ],
      "name": "EmergencyWithdraw",
      "type": "event"
    },
    {
      "anonymous": false,
      "inputs": [
        {
          "indexed": true,
          "internalType": "address",
          "name": "previousOwner",
          "type": "address"
        },
        {
          "indexed": true,
          "internalType": "address",
          "name": "newOwner",
          "type": "address"
        }
      ],
      "name": "OwnershipTransferred",
      "type": "event"
    },
    {
      "anonymous": false,
      "inputs": [
        {
          "indexed": true,
          "internalType": "address",
          "name": "user",
          "type": "address"
        },
        {
          "indexed": true,
          "internalType": "uint256",
          "name": "pid",
          "type": "uint256"
        },
        {
          "indexed": false,
          "internalType": "uint256",
          "name": "amount",
          "type": "uint256"
        }
      ],
      "name": "Withdraw",
      "type": "event"
    },
    {
      "inputs": [
        {
          "internalType": "uint256",
          "name": "_shyftPerBlock",
          "type": "uint256"
        },
        {
          "internalType": "contract IERC20",
          "name": "_lpToken",
          "type": "address"
        },
        {
          "internalType": "bool",
          "name": "_withUpdate",
          "type": "bool"
        }
      ],
      "name": "add",
      "outputs": [],
      "stateMutability": "nonpayable",
      "type": "function"
    },
    {
      "inputs": [
        {
          "internalType": "uint256",
          "name": "_poolId",
          "type": "uint256"
        },
        {
          "internalType": "uint256",
          "name": "_amount",
          "type": "uint256"
        }
      ],
      "name": "deposit",
      "outputs": [],
      "stateMutability": "nonpayable",
      "type": "function"
    },
    {
      "inputs": [
        {
          "internalType": "uint256",
          "name": "_pid",
          "type": "uint256"
        }
      ],
      "name": "emergencyWithdraw",
      "outputs": [],
      "stateMutability": "nonpayable",
      "type": "function"
    },
    {
      "inputs": [
        {
          "internalType": "uint256",
          "name": "_amount",
          "type": "uint256"
        }
      ],
      "name": "fund",
      "outputs": [],
      "stateMutability": "nonpayable",
      "type": "function"
    },
    {
      "inputs": [],
      "name": "getLockedShyftView",
      "outputs": [
        {
          "internalType": "uint256",
          "name": "",
          "type": "uint256"
        }
      ],
      "stateMutability": "view",
      "type": "function"
    },
    {
      "inputs": [
        {
          "internalType": "uint256",
          "name": "_poolId",
          "type": "uint256"
        }
      ],
      "name": "getLpSupply",
      "outputs": [
        {
          "internalType": "uint256",
          "name": "",
          "type": "uint256"
        }
      ],
      "stateMutability": "view",
      "type": "function"
    },
    {
      "inputs": [
        {
          "internalType": "uint256",
          "name": "_from",
          "type": "uint256"
        },
        {
          "internalType": "uint256",
          "name": "_to",
          "type": "uint256"
        }
      ],
      "name": "getMultiplier",
      "outputs": [
        {
          "internalType": "uint256",
          "name": "",
          "type": "uint256"
        }
      ],
      "stateMutability": "pure",
      "type": "function"
    },
    {
      "inputs": [
        {
          "internalType": "uint256",
          "name": "_poolId",
          "type": "uint256"
        }
      ],
      "name": "harvest",
      "outputs": [
        {
          "internalType": "uint256",
          "name": "",
          "type": "uint256"
        }
      ],
      "stateMutability": "nonpayable",
      "type": "function"
    },
    {
      "inputs": [],
      "name": "massUpdatePools",
      "outputs": [],
      "stateMutability": "nonpayable",
      "type": "function"
    },
    {
      "inputs": [],
      "name": "owner",
      "outputs": [
        {
          "internalType": "address",
          "name": "",
          "type": "address"
        }
      ],
      "stateMutability": "view",
      "type": "function"
    },
    {
      "inputs": [
        {
          "internalType": "uint256",
          "name": "_poolId",
          "type": "uint256"
        }
      ],
      "name": "pendingShyftReward",
      "outputs": [
        {
          "internalType": "uint256",
          "name": "",
          "type": "uint256"
        }
      ],
      "stateMutability": "view",
      "type": "function"
    },
    {
      "inputs": [
        {
          "internalType": "uint256",
          "name": "",
          "type": "uint256"
        }
      ],
      "name": "poolInfo",
      "outputs": [
        {
          "internalType": "contract IERC20",
          "name": "lpToken",
          "type": "address"
        },
        {
          "internalType": "uint256",
          "name": "perBlockShyftAllocated",
          "type": "uint256"
        },
        {
          "internalType": "uint256",
          "name": "lastRewardBlock",
          "type": "uint256"
        },
        {
          "internalType": "uint256",
          "name": "accShyftPerShare",
          "type": "uint256"
        }
      ],
      "stateMutability": "view",
      "type": "function"
    },
    {
      "inputs": [],
      "name": "poolLength",
      "outputs": [
        {
          "internalType": "uint256",
          "name": "",
          "type": "uint256"
        }
      ],
      "stateMutability": "view",
      "type": "function"
    },
    {
      "inputs": [],
      "name": "renounceOwnership",
      "outputs": [],
      "stateMutability": "nonpayable",
      "type": "function"
    },
    {
      "inputs": [
        {
          "internalType": "uint256",
          "name": "_poolId",
          "type": "uint256"
        },
        {
          "internalType": "uint256",
          "name": "_shyftPerBlock",
          "type": "uint256"
        },
        {
          "internalType": "bool",
          "name": "_withUpdate",
          "type": "bool"
        }
      ],
      "name": "set",
      "outputs": [],
      "stateMutability": "nonpayable",
      "type": "function"
    },
    {
      "inputs": [],
      "name": "shyftTokenContract",
      "outputs": [
        {
          "internalType": "contract IERC20",
          "name": "",
          "type": "address"
        }
      ],
      "stateMutability": "view",
      "type": "function"
    },
    {
      "inputs": [],
      "name": "startBlock",
      "outputs": [
        {
          "internalType": "uint256",
          "name": "",
          "type": "uint256"
        }
      ],
      "stateMutability": "view",
      "type": "function"
    },
    {
      "inputs": [
        {
          "internalType": "address",
          "name": "newOwner",
          "type": "address"
        }
      ],
      "name": "transferOwnership",
      "outputs": [],
      "stateMutability": "nonpayable",
      "type": "function"
    },
    {
      "inputs": [
        {
          "internalType": "uint256",
          "name": "_poolId",
          "type": "uint256"
        }
      ],
      "name": "updatePool",
      "outputs": [],
      "stateMutability": "nonpayable",
      "type": "function"
    },
    {
      "inputs": [
        {
          "internalType": "uint256",
          "name": "",
          "type": "uint256"
        },
        {
          "internalType": "address",
          "name": "",
          "type": "address"
        }
      ],
      "name": "userInfo",
      "outputs": [
        {
          "internalType": "uint256",
          "name": "amount",
          "type": "uint256"
        },
        {
          "internalType": "uint256",
          "name": "rewardDebt",
          "type": "uint256"
        }
      ],
      "stateMutability": "view",
      "type": "function"
    },
    {
      "inputs": [
        {
          "internalType": "uint256",
          "name": "_pid",
          "type": "uint256"
        },
        {
          "internalType": "uint256",
          "name": "_amount",
          "type": "uint256"
        }
      ],
      "name": "withdraw",
      "outputs": [],
      "stateMutability": "nonpayable",
      "type": "function"
    }
  ],
  "bytecode": "0x60806040523480156200001157600080fd5b5060405162002ee338038062002ee383398181016040528101906200003791906200016e565b6000620000496200013860201b60201c565b9050806000806101000a81548173ffffffffffffffffffffffffffffffffffffffff021916908373ffffffffffffffffffffffffffffffffffffffff1602179055508073ffffffffffffffffffffffffffffffffffffffff16600073ffffffffffffffffffffffffffffffffffffffff167f8be0079c531659141344cd1fd0a4f28419497f9722a3daafe3b4186f6b6457e060405160405180910390a35082600160006101000a81548173ffffffffffffffffffffffffffffffffffffffff021916908373ffffffffffffffffffffffffffffffffffffffff160217905550806004819055505050506200024a565b600033905090565b600081519050620001518162000216565b92915050565b600081519050620001688162000230565b92915050565b6000806000606084860312156200018457600080fd5b6000620001948682870162000140565b9350506020620001a78682870162000157565b9250506040620001ba8682870162000157565b9150509250925092565b6000620001d182620001ec565b9050919050565b6000620001e582620001c4565b9050919050565b600073ffffffffffffffffffffffffffffffffffffffff82169050919050565b6000819050919050565b6200022181620001d8565b81146200022d57600080fd5b50565b6200023b816200020c565b81146200024757600080fd5b50565b612c89806200025a6000396000f3fe608060405234801561001057600080fd5b50600436106101375760003560e01c806364482f79116100b8578063ab185cd31161007c578063ab185cd314610318578063ca1d209d14610348578063cb20fc4314610364578063ddc6326214610382578063e2bbb158146103b2578063f2fde38b146103ce57610137565b806364482f7914610273578063715018a61461028f5780638da5cb5b146102995780638dbb1e3a146102b757806393f1a40b146102e757610137565b806351eb05a6116100ff57806351eb05a6146101e35780635312ea8e146101ff5780635a4a7f031461021b5780635ecbbf9814610239578063630b5ba11461026957610137565b8063081e3eda1461013c5780631526fe271461015a5780631eaaa0451461018d578063441a3e70146101a957806348cd4cb1146101c5575b600080fd5b6101446103ea565b6040516101519190612903565b60405180910390f35b610174600480360381019061016f9190612148565b6103f7565b604051610184949392919061273e565b60405180910390f35b6101a760048036038101906101a291906121d6565b610457565b005b6101c360048036038101906101be9190612225565b6105c9565b005b6101cd61080d565b6040516101da9190612903565b60405180910390f35b6101fd60048036038101906101f89190612148565b610813565b005b61021960048036038101906102149190612148565b6109c0565b005b610223610b15565b6040516102309190612723565b60405180910390f35b610253600480360381019061024e9190612148565b610b3b565b6040516102609190612903565b60405180910390f35b610271610c3d565b005b61028d60048036038101906102889190612261565b610c70565b005b610297610d50565b005b6102a1610e8a565b6040516102ae91906126a8565b60405180910390f35b6102d160048036038101906102cc9190612225565b610eb3565b6040516102de9190612903565b60405180910390f35b61030160048036038101906102fc919061219a565b610ed0565b60405161030f92919061291e565b60405180910390f35b610332600480360381019061032d9190612148565b610f01565b60405161033f9190612903565b60405180910390f35b610362600480360381019061035d9190612148565b611132565b005b61036c6113db565b6040516103799190612903565b60405180910390f35b61039c60048036038101906103979190612148565b61148d565b6040516103a99190612903565b60405180910390f35b6103cc60048036038101906103c79190612225565b6115f6565b005b6103e860048036038101906103e391906120f6565b611803565b005b6000600280549050905090565b6002818154811061040757600080fd5b90600052602060002090600402016000915090508060000160009054906101000a900473ffffffffffffffffffffffffffffffffffffffff16908060010154908060020154908060030154905084565b61045f6119ac565b73ffffffffffffffffffffffffffffffffffffffff1661047d610e8a565b73ffffffffffffffffffffffffffffffffffffffff16146104d3576040517f08c379a00000000000000000000000000000000000000000000000000000000081526004016104ca90612863565b60405180910390fd5b80156104e2576104e1610c3d565b5b600060045443116104f5576004546104f7565b435b9050600260405180608001604052808573ffffffffffffffffffffffffffffffffffffffff1681526020018681526020018381526020016000815250908060018154018082558091505060019003906000526020600020906004020160009091909190915060008201518160000160006101000a81548173ffffffffffffffffffffffffffffffffffffffff021916908373ffffffffffffffffffffffffffffffffffffffff160217905550602082015181600101556040820151816002015560608201518160030155505050505050565b600060028381548110610605577f4e487b7100000000000000000000000000000000000000000000000000000000600052603260045260246000fd5b9060005260206000209060040201905060006003600085815260200190815260200160002060003373ffffffffffffffffffffffffffffffffffffffff1673ffffffffffffffffffffffffffffffffffffffff168152602001908152602001600020905082816000015410156106b0576040517f08c379a00000000000000000000000000000000000000000000000000000000081526004016106a7906128c3565b60405180910390fd5b6106b984610813565b600061070382600101546106f564e8d4a510006106e7876003015487600001546119b490919063ffffffff16565b6119ca90919063ffffffff16565b6119e090919063ffffffff16565b905061070f33826119f6565b6107268483600001546119e090919063ffffffff16565b826000018190555061076064e8d4a51000610752856003015485600001546119b490919063ffffffff16565b6119ca90919063ffffffff16565b82600101819055506107b733858560000160009054906101000a900473ffffffffffffffffffffffffffffffffffffffff1673ffffffffffffffffffffffffffffffffffffffff16611c1e9092919063ffffffff16565b843373ffffffffffffffffffffffffffffffffffffffff167ff279e6a1f5e320cca91135676d9cb6e44ca8a08c0b88342bcdb1144f6511b568866040516107fe9190612903565b60405180910390a35050505050565b60045481565b60006002828154811061084f577f4e487b7100000000000000000000000000000000000000000000000000000000600052603260045260246000fd5b906000526020600020906004020190508060020154431161087057506109bd565b60008160000160009054906101000a900473ffffffffffffffffffffffffffffffffffffffff1673ffffffffffffffffffffffffffffffffffffffff166370a08231306040518263ffffffff1660e01b81526004016108cf91906126a8565b60206040518083038186803b1580156108e757600080fd5b505afa1580156108fb573d6000803e3d6000fd5b505050506040513d601f19601f8201168201806040525081019061091f9190612171565b9050600081141561093a5743826002018190555050506109bd565b600061094a836002015443610eb3565b905060006109658460010154836119b490919063ffffffff16565b90506109a76109948461098664e8d4a51000856119b490919063ffffffff16565b6119ca90919063ffffffff16565b8560030154611ca490919063ffffffff16565b8460030181905550438460020181905550505050505b50565b6000600282815481106109fc577f4e487b7100000000000000000000000000000000000000000000000000000000600052603260045260246000fd5b9060005260206000209060040201905060006003600084815260200190815260200160002060003373ffffffffffffffffffffffffffffffffffffffff1673ffffffffffffffffffffffffffffffffffffffff1681526020019081526020016000209050610ab33382600001548460000160009054906101000a900473ffffffffffffffffffffffffffffffffffffffff1673ffffffffffffffffffffffffffffffffffffffff16611c1e9092919063ffffffff16565b823373ffffffffffffffffffffffffffffffffffffffff167fbb757047c2b5f3974fe26b7c10f732e7bce710b0952a71082702781e62ae05958360000154604051610afe9190612903565b60405180910390a360008160000181905550505050565b600160009054906101000a900473ffffffffffffffffffffffffffffffffffffffff1681565b60008060028381548110610b78577f4e487b7100000000000000000000000000000000000000000000000000000000600052603260045260246000fd5b906000526020600020906004020190508060000160009054906101000a900473ffffffffffffffffffffffffffffffffffffffff1673ffffffffffffffffffffffffffffffffffffffff166370a08231306040518263ffffffff1660e01b8152600401610be591906126a8565b60206040518083038186803b158015610bfd57600080fd5b505afa158015610c11573d6000803e3d6000fd5b505050506040513d601f19601f82011682018060405250810190610c359190612171565b915050919050565b6000600280549050905060005b81811015610c6c57610c5b81610813565b80610c6590612b3f565b9050610c4a565b5050565b610c786119ac565b73ffffffffffffffffffffffffffffffffffffffff16610c96610e8a565b73ffffffffffffffffffffffffffffffffffffffff1614610cec576040517f08c379a0000000000000000000000000000000000000000000000000000000008152600401610ce390612863565b60405180910390fd5b8015610cfb57610cfa610c3d565b5b8160028481548110610d36577f4e487b7100000000000000000000000000000000000000000000000000000000600052603260045260246000fd5b906000526020600020906004020160010181905550505050565b610d586119ac565b73ffffffffffffffffffffffffffffffffffffffff16610d76610e8a565b73ffffffffffffffffffffffffffffffffffffffff1614610dcc576040517f08c379a0000000000000000000000000000000000000000000000000000000008152600401610dc390612863565b60405180910390fd5b600073ffffffffffffffffffffffffffffffffffffffff1660008054906101000a900473ffffffffffffffffffffffffffffffffffffffff1673ffffffffffffffffffffffffffffffffffffffff167f8be0079c531659141344cd1fd0a4f28419497f9722a3daafe3b4186f6b6457e060405160405180910390a360008060006101000a81548173ffffffffffffffffffffffffffffffffffffffff021916908373ffffffffffffffffffffffffffffffffffffffff160217905550565b60008060009054906101000a900473ffffffffffffffffffffffffffffffffffffffff16905090565b6000610ec883836119e090919063ffffffff16565b905092915050565b6003602052816000526040600020602052806000526040600020600091509150508060000154908060010154905082565b60008060028381548110610f3e577f4e487b7100000000000000000000000000000000000000000000000000000000600052603260045260246000fd5b9060005260206000209060040201905060006003600085815260200190815260200160002060003373ffffffffffffffffffffffffffffffffffffffff1673ffffffffffffffffffffffffffffffffffffffff168152602001908152602001600020905060008260030154905060008360000160009054906101000a900473ffffffffffffffffffffffffffffffffffffffff1673ffffffffffffffffffffffffffffffffffffffff166370a08231306040518263ffffffff1660e01b815260040161100a91906126a8565b60206040518083038186803b15801561102257600080fd5b505afa158015611036573d6000803e3d6000fd5b505050506040513d601f19601f8201168201806040525081019061105a9190612171565b9050836002015443118015611070575060008114155b156110e3576000611085856002015443610eb3565b905060006110a08660010154836119b490919063ffffffff16565b90506110de6110cf846110c164e8d4a51000856119b490919063ffffffff16565b6119ca90919063ffffffff16565b85611ca490919063ffffffff16565b935050505b611127836001015461111964e8d4a5100061110b8688600001546119b490919063ffffffff16565b6119ca90919063ffffffff16565b6119e090919063ffffffff16565b945050505050919050565b6000339050600073ffffffffffffffffffffffffffffffffffffffff168173ffffffffffffffffffffffffffffffffffffffff1614156111a7576040517f08c379a000000000000000000000000000000000000000000000000000000000815260040161119e906127e3565b60405180910390fd5b600082116111ea576040517f08c379a00000000000000000000000000000000000000000000000000000000081526004016111e190612843565b60405180910390fd5b81600160009054906101000a900473ffffffffffffffffffffffffffffffffffffffff1673ffffffffffffffffffffffffffffffffffffffff166370a08231836040518263ffffffff1660e01b815260040161124691906126a8565b60206040518083038186803b15801561125e57600080fd5b505afa158015611272573d6000803e3d6000fd5b505050506040513d601f19601f820116820180604052508101906112969190612171565b10156112d7576040517f08c379a00000000000000000000000000000000000000000000000000000000081526004016112ce90612883565b60405180910390fd5b600160009054906101000a900473ffffffffffffffffffffffffffffffffffffffff1673ffffffffffffffffffffffffffffffffffffffff166323b872dd8230856040518463ffffffff1660e01b8152600401611336939291906126c3565b602060405180830381600087803b15801561135057600080fd5b505af1158015611364573d6000803e3d6000fd5b505050506040513d601f19601f82011682018060405250810190611388919061211f565b508073ffffffffffffffffffffffffffffffffffffffff167f0939f6f4877faf071412e527bc4c6d0bd65ad077e52b57334f7765265647a7f1836040516113cf9190612903565b60405180910390a25050565b6000600160009054906101000a900473ffffffffffffffffffffffffffffffffffffffff1673ffffffffffffffffffffffffffffffffffffffff166370a08231306040518263ffffffff1660e01b815260040161143891906126a8565b60206040518083038186803b15801561145057600080fd5b505afa158015611464573d6000803e3d6000fd5b505050506040513d601f19601f820116820180604052508101906114889190612171565b905090565b600080600283815481106114ca577f4e487b7100000000000000000000000000000000000000000000000000000000600052603260045260246000fd5b9060005260206000209060040201905060006003600085815260200190815260200160002060003373ffffffffffffffffffffffffffffffffffffffff1673ffffffffffffffffffffffffffffffffffffffff16815260200190815260200160002090506115386000610813565b61157c6040518060400160405280600c81526020017f63757272656e74426c6f636b0000000000000000000000000000000000000000815250438460030154611cba565b6000816000015411156115ea5760006115d382600101546115c564e8d4a510006115b7876003015487600001546119b490919063ffffffff16565b6119ca90919063ffffffff16565b6119e090919063ffffffff16565b90506115df33826119f6565b8093505050506115f1565b6000925050505b919050565b600060028381548110611632577f4e487b7100000000000000000000000000000000000000000000000000000000600052603260045260246000fd5b9060005260206000209060040201905060006003600085815260200190815260200160002060003373ffffffffffffffffffffffffffffffffffffffff1673ffffffffffffffffffffffffffffffffffffffff168152602001908152602001600020905061169f84610813565b6000816000015411156117045760006116f682600101546116e864e8d4a510006116da876003015487600001546119b490919063ffffffff16565b6119ca90919063ffffffff16565b6119e090919063ffffffff16565b905061170233826119f6565b505b6117553330858560000160009054906101000a900473ffffffffffffffffffffffffffffffffffffffff1673ffffffffffffffffffffffffffffffffffffffff16611d59909392919063ffffffff16565b61176c838260000154611ca490919063ffffffff16565b81600001819055506117a664e8d4a51000611798846003015484600001546119b490919063ffffffff16565b6119ca90919063ffffffff16565b8160010181905550833373ffffffffffffffffffffffffffffffffffffffff167f90890809c654f11d6e72a28fa60149770a0d11ec6c92319d6ceb2bb0a4ea1a15856040516117f59190612903565b60405180910390a350505050565b61180b6119ac565b73ffffffffffffffffffffffffffffffffffffffff16611829610e8a565b73ffffffffffffffffffffffffffffffffffffffff161461187f576040517f08c379a000000000000000000000000000000000000000000000000000000000815260040161187690612863565b60405180910390fd5b600073ffffffffffffffffffffffffffffffffffffffff168173ffffffffffffffffffffffffffffffffffffffff1614156118ef576040517f08c379a00000000000000000000000000000000000000000000000000000000081526004016118e690612803565b60405180910390fd5b8073ffffffffffffffffffffffffffffffffffffffff1660008054906101000a900473ffffffffffffffffffffffffffffffffffffffff1673ffffffffffffffffffffffffffffffffffffffff167f8be0079c531659141344cd1fd0a4f28419497f9722a3daafe3b4186f6b6457e060405160405180910390a3806000806101000a81548173ffffffffffffffffffffffffffffffffffffffff021916908373ffffffffffffffffffffffffffffffffffffffff16021790555050565b600033905090565b600081836119c29190612a00565b905092915050565b600081836119d891906129cf565b905092915050565b600081836119ee9190612a5a565b905092915050565b60003090506000600160009054906101000a900473ffffffffffffffffffffffffffffffffffffffff1673ffffffffffffffffffffffffffffffffffffffff166370a08231836040518263ffffffff1660e01b8152600401611a5891906126a8565b60206040518083038186803b158015611a7057600080fd5b505afa158015611a84573d6000803e3d6000fd5b505050506040513d601f19601f82011682018060405250810190611aa89190612171565b905080831115611b6757600160009054906101000a900473ffffffffffffffffffffffffffffffffffffffff1673ffffffffffffffffffffffffffffffffffffffff1663a9059cbb85836040518363ffffffff1660e01b8152600401611b0f9291906126fa565b602060405180830381600087803b158015611b2957600080fd5b505af1158015611b3d573d6000803e3d6000fd5b505050506040513d601f19601f82011682018060405250810190611b61919061211f565b50611c18565b600160009054906101000a900473ffffffffffffffffffffffffffffffffffffffff1673ffffffffffffffffffffffffffffffffffffffff1663a9059cbb85856040518363ffffffff1660e01b8152600401611bc49291906126fa565b602060405180830381600087803b158015611bde57600080fd5b505af1158015611bf2573d6000803e3d6000fd5b505050506040513d601f19601f82011682018060405250810190611c16919061211f565b505b50505050565b611c9f8363a9059cbb60e01b8484604051602401611c3d9291906126fa565b604051602081830303815290604052907bffffffffffffffffffffffffffffffffffffffffffffffffffffffff19166020820180517bffffffffffffffffffffffffffffffffffffffffffffffffffffffff8381831617835250505050611de2565b505050565b60008183611cb29190612979565b905092915050565b611d54838383604051602401611cd2939291906127a5565b6040516020818303038152906040527f969cdd03000000000000000000000000000000000000000000000000000000007bffffffffffffffffffffffffffffffffffffffffffffffffffffffff19166020820180517bffffffffffffffffffffffffffffffffffffffffffffffffffffffff8381831617835250505050611ea9565b505050565b611ddc846323b872dd60e01b858585604051602401611d7a939291906126c3565b604051602081830303815290604052907bffffffffffffffffffffffffffffffffffffffffffffffffffffffff19166020820180517bffffffffffffffffffffffffffffffffffffffffffffffffffffffff8381831617835250505050611de2565b50505050565b6000611e44826040518060400160405280602081526020017f5361666545524332303a206c6f772d6c6576656c2063616c6c206661696c65648152508573ffffffffffffffffffffffffffffffffffffffff16611ed29092919063ffffffff16565b9050600081511115611ea45780806020019051810190611e64919061211f565b611ea3576040517f08c379a0000000000000000000000000000000000000000000000000000000008152600401611e9a906128e3565b60405180910390fd5b5b505050565b60008151905060006a636f6e736f6c652e6c6f679050602083016000808483855afa5050505050565b6060611ee18484600085611eea565b90509392505050565b606082471015611f2f576040517f08c379a0000000000000000000000000000000000000000000000000000000008152600401611f2690612823565b60405180910390fd5b611f3885611ffe565b611f77576040517f08c379a0000000000000000000000000000000000000000000000000000000008152600401611f6e906128a3565b60405180910390fd5b6000808673ffffffffffffffffffffffffffffffffffffffff168587604051611fa09190612691565b60006040518083038185875af1925050503d8060008114611fdd576040519150601f19603f3d011682016040523d82523d6000602084013e611fe2565b606091505b5091509150611ff2828286612011565b92505050949350505050565b600080823b905060008111915050919050565b6060831561202157829050612071565b6000835111156120345782518084602001fd5b816040517f08c379a00000000000000000000000000000000000000000000000000000000081526004016120689190612783565b60405180910390fd5b9392505050565b60008135905061208781612bf7565b92915050565b60008135905061209c81612c0e565b92915050565b6000815190506120b181612c0e565b92915050565b6000813590506120c681612c25565b92915050565b6000813590506120db81612c3c565b92915050565b6000815190506120f081612c3c565b92915050565b60006020828403121561210857600080fd5b600061211684828501612078565b91505092915050565b60006020828403121561213157600080fd5b600061213f848285016120a2565b91505092915050565b60006020828403121561215a57600080fd5b6000612168848285016120cc565b91505092915050565b60006020828403121561218357600080fd5b6000612191848285016120e1565b91505092915050565b600080604083850312156121ad57600080fd5b60006121bb858286016120cc565b92505060206121cc85828601612078565b9150509250929050565b6000806000606084860312156121eb57600080fd5b60006121f9868287016120cc565b935050602061220a868287016120b7565b925050604061221b8682870161208d565b9150509250925092565b6000806040838503121561223857600080fd5b6000612246858286016120cc565b9250506020612257858286016120cc565b9150509250929050565b60008060006060848603121561227657600080fd5b6000612284868287016120cc565b9350506020612295868287016120cc565b92505060406122a68682870161208d565b9150509250925092565b6122b981612a8e565b82525050565b60006122ca82612947565b6122d4818561295d565b93506122e4818560208601612b0c565b80840191505092915050565b6122f981612ae8565b82525050565b600061230a82612952565b6123148185612968565b9350612324818560208601612b0c565b61232d81612be6565b840191505092915050565b6000612345602383612968565b91507f66756e643a206d75737420706173732076616c6964205f66726f6d206164647260008301527f65737300000000000000000000000000000000000000000000000000000000006020830152604082019050919050565b60006123ab602683612968565b91507f4f776e61626c653a206e6577206f776e657220697320746865207a65726f206160008301527f64647265737300000000000000000000000000000000000000000000000000006020830152604082019050919050565b6000612411602683612968565b91507f416464726573733a20696e73756666696369656e742062616c616e636520666f60008301527f722063616c6c00000000000000000000000000000000000000000000000000006020830152604082019050919050565b6000612477603183612968565b91507f66756e643a20657870656374696e67206120706f736974697665206e6f6e207a60008301527f65726f205f616d6f756e742076616c75650000000000000000000000000000006020830152604082019050919050565b60006124dd602083612968565b91507f4f776e61626c653a2063616c6c6572206973206e6f7420746865206f776e65726000830152602082019050919050565b600061251d604183612968565b91507f66756e643a20657870656374656420616e20616464726573732074686174206360008301527f6f6e7461696e7320656e6f75676820536879667420666f72205472616e73666560208301527f72000000000000000000000000000000000000000000000000000000000000006040830152606082019050919050565b60006125a9601d83612968565b91507f416464726573733a2063616c6c20746f206e6f6e2d636f6e74726163740000006000830152602082019050919050565b60006125e9601283612968565b91507f77697468647261773a206e6f7420676f6f6400000000000000000000000000006000830152602082019050919050565b6000612629602a83612968565b91507f5361666545524332303a204552433230206f7065726174696f6e20646964206e60008301527f6f742073756363656564000000000000000000000000000000000000000000006020830152604082019050919050565b61268b81612ade565b82525050565b600061269d82846122bf565b915081905092915050565b60006020820190506126bd60008301846122b0565b92915050565b60006060820190506126d860008301866122b0565b6126e560208301856122b0565b6126f26040830184612682565b949350505050565b600060408201905061270f60008301856122b0565b61271c6020830184612682565b9392505050565b600060208201905061273860008301846122f0565b92915050565b600060808201905061275360008301876122f0565b6127606020830186612682565b61276d6040830185612682565b61277a6060830184612682565b95945050505050565b6000602082019050818103600083015261279d81846122ff565b905092915050565b600060608201905081810360008301526127bf81866122ff565b90506127ce6020830185612682565b6127db6040830184612682565b949350505050565b600060208201905081810360008301526127fc81612338565b9050919050565b6000602082019050818103600083015261281c8161239e565b9050919050565b6000602082019050818103600083015261283c81612404565b9050919050565b6000602082019050818103600083015261285c8161246a565b9050919050565b6000602082019050818103600083015261287c816124d0565b9050919050565b6000602082019050818103600083015261289c81612510565b9050919050565b600060208201905081810360008301526128bc8161259c565b9050919050565b600060208201905081810360008301526128dc816125dc565b9050919050565b600060208201905081810360008301526128fc8161261c565b9050919050565b60006020820190506129186000830184612682565b92915050565b60006040820190506129336000830185612682565b6129406020830184612682565b9392505050565b600081519050919050565b600081519050919050565b600081905092915050565b600082825260208201905092915050565b600061298482612ade565b915061298f83612ade565b9250827fffffffffffffffffffffffffffffffffffffffffffffffffffffffffffffffff038211156129c4576129c3612b88565b5b828201905092915050565b60006129da82612ade565b91506129e583612ade565b9250826129f5576129f4612bb7565b5b828204905092915050565b6000612a0b82612ade565b9150612a1683612ade565b9250817fffffffffffffffffffffffffffffffffffffffffffffffffffffffffffffffff0483118215151615612a4f57612a4e612b88565b5b828202905092915050565b6000612a6582612ade565b9150612a7083612ade565b925082821015612a8357612a82612b88565b5b828203905092915050565b6000612a9982612abe565b9050919050565b60008115159050919050565b6000612ab782612a8e565b9050919050565b600073ffffffffffffffffffffffffffffffffffffffff82169050919050565b6000819050919050565b6000612af382612afa565b9050919050565b6000612b0582612abe565b9050919050565b60005b83811015612b2a578082015181840152602081019050612b0f565b83811115612b39576000848401525b50505050565b6000612b4a82612ade565b91507fffffffffffffffffffffffffffffffffffffffffffffffffffffffffffffffff821415612b7d57612b7c612b88565b5b600182019050919050565b7f4e487b7100000000000000000000000000000000000000000000000000000000600052601160045260246000fd5b7f4e487b7100000000000000000000000000000000000000000000000000000000600052601260045260246000fd5b6000601f19601f8301169050919050565b612c0081612a8e565b8114612c0b57600080fd5b50565b612c1781612aa0565b8114612c2257600080fd5b50565b612c2e81612aac565b8114612c3957600080fd5b50565b612c4581612ade565b8114612c5057600080fd5b5056fea26469706673582212203349720873c21c269f9c0a4867640675325f877f2bd899bbcc6e1532e7ae35bf64736f6c63430008000033",
  "linkReferences": {},
  "deployedLinkReferences": {}
}