{
  "_format": "hh-sol-artifact-1",
  "contractName": "ShyftStaking",
  "sourceName": "contracts/ShyftStaking.sol",
  "abi": [
    {
      "type": "event",
      "name": "LowestVotingBoundPriceUpdated",
      "inputs": [
        {
          "type": "uint256",
          "name": "newLowestVotingBoundPrice",
          "internalType": "uint256",
          "indexed": false
        }
      ],
      "anonymous": false
    },
    {
      "type": "event",
      "name": "OwnershipTransferred",
      "inputs": [
        {
          "type": "address",
          "name": "previousOwner",
          "internalType": "address",
          "indexed": true
        },
        {
          "type": "address",
          "name": "newOwner",
          "internalType": "address",
          "indexed": true
        }
      ],
      "anonymous": false
    },
    {
      "type": "event",
      "name": "PrePurchaserAdded",
      "inputs": [
        {
          "type": "address",
          "name": "prePurchaser",
          "internalType": "address",
          "indexed": true
        },
        {
          "type": "uint256",
          "name": "amount",
          "internalType": "uint256",
          "indexed": false
        }
      ],
      "anonymous": false
    },
    {
      "type": "event",
      "name": "PrePurchaserStaked",
      "inputs": [
        {
          "type": "address",
          "name": "prePurchaser",
          "internalType": "address",
          "indexed": true
        },
        {
          "type": "uint256",
          "name": "amount",
          "internalType": "uint256",
          "indexed": false
        }
      ],
      "anonymous": false
    },
    {
      "type": "event",
      "name": "PrepurchasersModeFinished",
      "inputs": [
        {
          "type": "uint256",
          "name": "amountOfRewardsReturned",
          "internalType": "uint256",
          "indexed": false
        }
      ],
      "anonymous": false
    },
    {
      "type": "event",
      "name": "RewardAdded",
      "inputs": [
        {
          "type": "uint256",
          "name": "reward",
          "internalType": "uint256",
          "indexed": false
        }
      ],
      "anonymous": false
    },
    {
      "type": "event",
      "name": "RewardAmountUpdated",
      "inputs": [
        {
          "type": "uint256",
          "name": "newRewardAmount",
          "internalType": "uint256",
          "indexed": false
        }
      ],
      "anonymous": false
    },
    {
      "type": "event",
      "name": "RewardPaid",
      "inputs": [
        {
          "type": "address",
          "name": "user",
          "internalType": "address",
          "indexed": true
        },
        {
          "type": "uint256",
          "name": "reward",
          "internalType": "uint256",
          "indexed": false
        }
      ],
      "anonymous": false
    },
    {
      "type": "event",
      "name": "RewardsDurationUpdated",
      "inputs": [
        {
          "type": "uint256",
          "name": "newDuration",
          "internalType": "uint256",
          "indexed": false
        }
      ],
      "anonymous": false
    },
    {
      "type": "event",
      "name": "Staked",
      "inputs": [
        {
          "type": "address",
          "name": "user",
          "internalType": "address",
          "indexed": true
        },
        {
          "type": "uint256",
          "name": "amount",
          "internalType": "uint256",
          "indexed": false
        }
      ],
      "anonymous": false
    },
    {
      "type": "event",
      "name": "Unbonded",
      "inputs": [
        {
          "type": "address",
          "name": "user",
          "internalType": "address",
          "indexed": true
        },
        {
          "type": "uint256",
          "name": "amount",
          "internalType": "uint256",
          "indexed": false
        },
        {
          "type": "uint256",
          "name": "timestamp",
          "internalType": "uint256",
          "indexed": false
        },
        {
          "type": "uint256",
          "name": "id",
          "internalType": "uint256",
          "indexed": false
        }
      ],
      "anonymous": false
    },
    {
      "type": "event",
      "name": "Unstaked",
      "inputs": [
        {
          "type": "uint256",
          "name": "unbondingId",
          "internalType": "uint256",
          "indexed": true
        },
        {
          "type": "uint256",
          "name": "amount",
          "internalType": "uint256",
          "indexed": false
        }
      ],
      "anonymous": false
    },
    {
      "type": "function",
      "stateMutability": "nonpayable",
      "outputs": [],
      "name": "addPrePurchasers",
      "inputs": [
        {
          "type": "address[]",
          "name": "prePurchasers",
          "internalType": "address[]"
        },
        {
          "type": "uint256[]",
          "name": "amounts",
          "internalType": "uint256[]"
        }
      ]
    },
    {
      "type": "function",
      "stateMutability": "view",
      "outputs": [
        {
          "type": "uint256",
          "name": "",
          "internalType": "uint256"
        }
      ],
      "name": "balanceOf",
      "inputs": [
        {
          "type": "address",
          "name": "account",
          "internalType": "address"
        }
      ]
    },
    {
      "type": "function",
      "stateMutability": "view",
      "outputs": [
        {
          "type": "uint256",
          "name": "",
          "internalType": "uint256"
        }
      ],
      "name": "earned",
      "inputs": [
        {
          "type": "address",
          "name": "account",
          "internalType": "address"
        }
      ]
    },
    {
      "type": "function",
      "stateMutability": "nonpayable",
      "outputs": [],
      "name": "finishPrePurchasersMode",
      "inputs": []
    },
    {
      "type": "function",
      "stateMutability": "nonpayable",
      "outputs": [],
      "name": "getReward",
      "inputs": []
    },
    {
      "type": "function",
      "stateMutability": "view",
      "outputs": [
        {
          "type": "uint256",
          "name": "",
          "internalType": "uint256"
        }
      ],
      "name": "getRewardForDuration",
      "inputs": []
    },
    {
      "type": "function",
      "stateMutability": "view",
      "outputs": [
        {
          "type": "uint256[]",
          "name": "",
          "internalType": "uint256[]"
        },
        {
          "type": "uint256",
          "name": "",
          "internalType": "uint256"
        }
      ],
      "name": "getUnbondingIds",
      "inputs": [
        {
          "type": "address",
          "name": "account",
          "internalType": "address"
        },
        {
          "type": "uint256",
          "name": "offset",
          "internalType": "uint256"
        },
        {
          "type": "uint256",
          "name": "size",
          "internalType": "uint256"
        }
      ]
    },
    {
      "type": "function",
      "stateMutability": "view",
      "outputs": [
        {
          "type": "uint256",
          "name": "",
          "internalType": "uint256"
        }
      ],
      "name": "getUnbondingIdsLength",
      "inputs": [
        {
          "type": "address",
          "name": "account",
          "internalType": "address"
        }
      ]
    },
    {
      "type": "function",
      "stateMutability": "nonpayable",
      "outputs": [],
      "name": "initialize",
      "inputs": [
        {
          "type": "address",
          "name": "rewardsDistribution_",
          "internalType": "address"
        },
        {
          "type": "address",
          "name": "shyftDao_",
          "internalType": "address"
        },
        {
          "type": "address",
          "name": "priceFeeder_",
          "internalType": "address"
        },
        {
          "type": "uint256",
          "name": "prePurchasersReleaseTimestamp_",
          "internalType": "uint256"
        },
        {
          "type": "uint256",
          "name": "rewardsDuration_",
          "internalType": "uint256"
        },
        {
          "type": "uint256",
          "name": "rewardsAmount_",
          "internalType": "uint256"
        },
        {
          "type": "uint256",
          "name": "lowestVotingBoundPrice_",
          "internalType": "uint256"
        }
      ]
    },
    {
      "type": "function",
      "stateMutability": "view",
      "outputs": [
        {
          "type": "uint256",
          "name": "",
          "internalType": "uint256"
        }
      ],
      "name": "lastTimeRewardApplicable",
      "inputs": []
    },
    {
      "type": "function",
      "stateMutability": "view",
      "outputs": [
        {
          "type": "uint256",
          "name": "",
          "internalType": "uint256"
        }
      ],
      "name": "lastUpdateTime",
      "inputs": []
    },
    {
      "type": "function",
      "stateMutability": "view",
      "outputs": [
        {
          "type": "uint256",
          "name": "",
          "internalType": "uint256"
        }
      ],
      "name": "lowestVotingBoundPrice",
      "inputs": []
    },
    {
      "type": "function",
      "stateMutability": "payable",
      "outputs": [],
      "name": "notifyRewardAmount",
      "inputs": []
    },
    {
      "type": "function",
      "stateMutability": "view",
      "outputs": [
        {
          "type": "address",
          "name": "",
          "internalType": "address"
        }
      ],
      "name": "owner",
      "inputs": []
    },
    {
      "type": "function",
      "stateMutability": "view",
      "outputs": [
        {
          "type": "uint256",
          "name": "",
          "internalType": "uint256"
        }
      ],
      "name": "periodFinish",
      "inputs": []
    },
    {
      "type": "function",
      "stateMutability": "view",
      "outputs": [
        {
          "type": "uint256",
          "name": "amountAdded",
          "internalType": "uint256"
        },
        {
          "type": "bool",
          "name": "staked",
          "internalType": "bool"
        }
      ],
      "name": "prePurchasersDetails",
      "inputs": [
        {
          "type": "address",
          "name": "",
          "internalType": "address"
        }
      ]
    },
    {
      "type": "function",
      "stateMutability": "view",
      "outputs": [
        {
          "type": "uint256",
          "name": "",
          "internalType": "uint256"
        }
      ],
      "name": "prePurchasersReleaseTimestamp",
      "inputs": []
    },
    {
      "type": "function",
      "stateMutability": "view",
      "outputs": [
        {
          "type": "address",
          "name": "",
          "internalType": "contract IPriceFeeder"
        }
      ],
      "name": "priceFeeder",
      "inputs": []
    },
    {
      "type": "function",
      "stateMutability": "nonpayable",
      "outputs": [],
      "name": "renounceOwnership",
      "inputs": []
    },
    {
      "type": "function",
      "stateMutability": "view",
      "outputs": [
        {
          "type": "uint256",
          "name": "",
          "internalType": "uint256"
        }
      ],
      "name": "rewardPerShft",
      "inputs": []
    },
    {
      "type": "function",
      "stateMutability": "view",
      "outputs": [
        {
          "type": "uint256",
          "name": "",
          "internalType": "uint256"
        }
      ],
      "name": "rewardPerShftStored",
      "inputs": []
    },
    {
      "type": "function",
      "stateMutability": "view",
      "outputs": [
        {
          "type": "uint256",
          "name": "",
          "internalType": "uint256"
        }
      ],
      "name": "rewardRate",
      "inputs": []
    },
    {
      "type": "function",
      "stateMutability": "view",
      "outputs": [
        {
          "type": "uint256",
          "name": "",
          "internalType": "uint256"
        }
      ],
      "name": "rewards",
      "inputs": [
        {
          "type": "address",
          "name": "",
          "internalType": "address"
        }
      ]
    },
    {
      "type": "function",
      "stateMutability": "view",
      "outputs": [
        {
          "type": "uint256",
          "name": "",
          "internalType": "uint256"
        }
      ],
      "name": "rewardsAmount",
      "inputs": []
    },
    {
      "type": "function",
      "stateMutability": "view",
      "outputs": [
        {
          "type": "address",
          "name": "",
          "internalType": "address"
        }
      ],
      "name": "rewardsDistribution",
      "inputs": []
    },
    {
      "type": "function",
      "stateMutability": "view",
      "outputs": [
        {
          "type": "uint256",
          "name": "",
          "internalType": "uint256"
        }
      ],
      "name": "rewardsDuration",
      "inputs": []
    },
    {
      "type": "function",
      "stateMutability": "nonpayable",
      "outputs": [],
      "name": "setLowestVotingBoundPrice",
      "inputs": [
        {
          "type": "uint256",
          "name": "lowestVotingBoundPrice_",
          "internalType": "uint256"
        }
      ]
    },
    {
      "type": "function",
      "stateMutability": "nonpayable",
      "outputs": [],
      "name": "setPriceFeeder",
      "inputs": [
        {
          "type": "address",
          "name": "priceFeeder_",
          "internalType": "address"
        }
      ]
    },
    {
      "type": "function",
      "stateMutability": "nonpayable",
      "outputs": [],
      "name": "setRewardsAmount",
      "inputs": [
        {
          "type": "uint256",
          "name": "rewardsAmount_",
          "internalType": "uint256"
        }
      ]
    },
    {
      "type": "function",
      "stateMutability": "nonpayable",
      "outputs": [],
      "name": "setRewardsDistribution",
      "inputs": [
        {
          "type": "address",
          "name": "rewardsDistribution_",
          "internalType": "address"
        }
      ]
    },
    {
      "type": "function",
      "stateMutability": "nonpayable",
      "outputs": [],
      "name": "setRewardsDuration",
      "inputs": [
        {
          "type": "uint256",
          "name": "rewardsDuration_",
          "internalType": "uint256"
        }
      ]
    },
    {
      "type": "function",
      "stateMutability": "nonpayable",
      "outputs": [],
      "name": "setShyftDao",
      "inputs": [
        {
          "type": "address",
          "name": "shyftDao_",
          "internalType": "address"
        }
      ]
    },
    {
      "type": "function",
      "stateMutability": "view",
      "outputs": [
        {
          "type": "address",
          "name": "",
          "internalType": "contract IShyftDao"
        }
      ],
      "name": "shyftDao",
      "inputs": []
    },
    {
      "type": "function",
      "stateMutability": "payable",
      "outputs": [],
      "name": "stake",
      "inputs": []
    },
    {
      "type": "function",
      "stateMutability": "payable",
      "outputs": [],
      "name": "stakePrePurchaser",
      "inputs": []
    },
    {
      "type": "function",
      "stateMutability": "view",
      "outputs": [
        {
          "type": "uint256",
          "name": "",
          "internalType": "uint256"
        }
      ],
      "name": "totalPrePurchasersAmountToBeStaked",
      "inputs": []
    },
    {
      "type": "function",
      "stateMutability": "view",
      "outputs": [
        {
          "type": "uint256",
          "name": "",
          "internalType": "uint256"
        }
      ],
      "name": "totalSupply",
      "inputs": []
    },
    {
      "type": "function",
      "stateMutability": "view",
      "outputs": [
        {
          "type": "uint256",
          "name": "",
          "internalType": "uint256"
        }
      ],
      "name": "totalUnbondings",
      "inputs": []
    },
    {
      "type": "function",
      "stateMutability": "nonpayable",
      "outputs": [],
      "name": "transferOwnership",
      "inputs": [
        {
          "type": "address",
          "name": "newOwner",
          "internalType": "address"
        }
      ]
    },
    {
      "type": "function",
      "stateMutability": "nonpayable",
      "outputs": [],
      "name": "unbond",
      "inputs": [
        {
          "type": "uint256",
          "name": "amount",
          "internalType": "uint256"
        }
      ]
    },
    {
      "type": "function",
      "stateMutability": "nonpayable",
      "outputs": [],
      "name": "unbondAll",
      "inputs": []
    },
    {
      "type": "function",
      "stateMutability": "view",
      "outputs": [
        {
          "type": "address",
          "name": "account",
          "internalType": "address"
        },
        {
          "type": "uint256",
          "name": "remainingAmount",
          "internalType": "uint256"
        },
        {
          "type": "uint256",
          "name": "unstakeEnabledTimestamp",
          "internalType": "uint256"
        },
        {
          "type": "uint256",
          "name": "indexIntoUnbondingArray",
          "internalType": "uint256"
        }
      ],
      "name": "unbondingDetailsForId",
      "inputs": [
        {
          "type": "uint256",
          "name": "",
          "internalType": "uint256"
        }
      ]
    },
    {
      "type": "function",
      "stateMutability": "view",
      "outputs": [
        {
          "type": "uint256",
          "name": "",
          "internalType": "uint256"
        }
      ],
      "name": "unbondingIdsPerAddress",
      "inputs": [
        {
          "type": "address",
          "name": "",
          "internalType": "address"
        },
        {
          "type": "uint256",
          "name": "",
          "internalType": "uint256"
        }
      ]
    },
    {
      "type": "function",
      "stateMutability": "view",
      "outputs": [
        {
          "type": "uint256",
          "name": "",
          "internalType": "uint256"
        }
      ],
      "name": "unbondingPeriod",
      "inputs": []
    },
    {
      "type": "function",
      "stateMutability": "nonpayable",
      "outputs": [],
      "name": "unstake",
      "inputs": [
        {
          "type": "uint256",
          "name": "unbondingId",
          "internalType": "uint256"
        },
        {
          "type": "uint256",
          "name": "amount",
          "internalType": "uint256"
        }
      ]
    },
    {
      "type": "function",
      "stateMutability": "view",
      "outputs": [
        {
          "type": "uint256",
          "name": "",
          "internalType": "uint256"
        }
      ],
      "name": "userRewardPerShftPaid",
      "inputs": [
        {
          "type": "address",
          "name": "",
          "internalType": "address"
        }
      ]
    }
  ],
  "bytecode": "0x608060405234801561001057600080fd5b50613120806100206000396000f3fe60806040526004361061027c5760003560e01c806371b77d0a1161014f578063a75da1e6116100c1578063c13d995c1161007a578063c13d995c14610941578063c8f33c9114610956578063cc1a378f1461096b578063de771e3514610995578063ebe2b12b146109aa578063f2fde38b146109bf5761027c565b8063a75da1e61461080b578063ae707184146108a5578063b012e2cc146108ba578063bd43c107146108cf578063be0143c9146108e4578063c09b4ed91461090e5761027c565b806389794b281161011357806389794b28146107265780638da5cb5b1461073b578063980b691f14610750578063998ed311146107655780639e2c8a5b1461078f578063a4b65397146107bf5761027c565b806371b77d0a146106785780637963bbfd1461068d5780637b0a47ee146106e75780637bdec1b6146106fc57806380faa57d146107115761027c565b80632838edc6116101f35780635e7654f8116101ac5780635e7654f8146105ad57806360f77190146105e05780636cf6d675146105e85780636e6f5bc4146105fd57806370a0823114610630578063715018a6146106635761027c565b80632838edc6146104d25780632b4656c81461050b578063386a9525146105665780633a4b66f11461057b5780633d18b912146105835780633fc6df6e146105985761027c565b806318160ddd1161024557806318160ddd146103e757806319762143146103fc5780631c1f78eb1461042f5780631d844c2d146104445780631fada4851461047757806327de9e32146104a85761027c565b80628cc262146102815780630700037d146102c65780630c51dde4146102f957806311adbf3c1461030357806315f7b402146103d2575b600080fd5b34801561028d57600080fd5b506102b4600480360360208110156102a457600080fd5b50356001600160a01b03166109f2565b60408051918252519081900360200190f35b3480156102d257600080fd5b506102b4600480360360208110156102e957600080fd5b50356001600160a01b0316610a70565b610301610a82565b005b34801561030f57600080fd5b506103016004803603604081101561032657600080fd5b81019060208101813564010000000081111561034157600080fd5b82018360208201111561035357600080fd5b8035906020019184602083028401116401000000008311171561037557600080fd5b91939092909160208101903564010000000081111561039357600080fd5b8201836020820111156103a557600080fd5b803590602001918460208302840111640100000000831117156103c757600080fd5b509092509050610e5e565b3480156103de57600080fd5b50610301611150565b3480156103f357600080fd5b506102b4611264565b34801561040857600080fd5b506103016004803603602081101561041f57600080fd5b50356001600160a01b031661126b565b34801561043b57600080fd5b506102b46112ef565b34801561045057600080fd5b506103016004803603602081101561046757600080fd5b50356001600160a01b031661130d565b34801561048357600080fd5b5061048c611391565b604080516001600160a01b039092168252519081900360200190f35b3480156104b457600080fd5b50610301600480360360208110156104cb57600080fd5b50356113a0565b3480156104de57600080fd5b506102b4600480360360408110156104f557600080fd5b506001600160a01b03813516906020013561149d565b34801561051757600080fd5b50610301600480360360e081101561052e57600080fd5b506001600160a01b03813581169160208101358216916040820135169060608101359060808101359060a08101359060c001356114ce565b34801561057257600080fd5b506102b46115ec565b6103016115f2565b34801561058f57600080fd5b506103016117af565b3480156105a457600080fd5b5061048c6118a1565b3480156105b957600080fd5b50610301600480360360208110156105d057600080fd5b50356001600160a01b03166118b0565b610301611934565b3480156105f457600080fd5b506102b4611ba4565b34801561060957600080fd5b506102b46004803603602081101561062057600080fd5b50356001600160a01b0316611baa565b34801561063c57600080fd5b506102b46004803603602081101561065357600080fd5b50356001600160a01b0316611bc5565b34801561066f57600080fd5b50610301611be0565b34801561068457600080fd5b5061048c611c8c565b34801561069957600080fd5b506106b7600480360360208110156106b057600080fd5b5035611c9b565b604080516001600160a01b0390951685526020850193909352838301919091526060830152519081900360800190f35b3480156106f357600080fd5b506102b4611ccc565b34801561070857600080fd5b506102b4611cd2565b34801561071d57600080fd5b506102b4611cd8565b34801561073257600080fd5b506102b4611cf0565b34801561074757600080fd5b5061048c611cf6565b34801561075c57600080fd5b50610301611d05565b34801561077157600080fd5b506103016004803603602081101561078857600080fd5b5035611ee1565b34801561079b57600080fd5b50610301600480360360408110156107b257600080fd5b5080359060200135611f7e565b3480156107cb57600080fd5b506107f2600480360360208110156107e257600080fd5b50356001600160a01b031661222c565b6040805192835290151560208301528051918290030190f35b34801561081757600080fd5b5061084a6004803603606081101561082e57600080fd5b506001600160a01b038135169060208101359060400135612248565b6040518080602001838152602001828103825284818151815260200191508051906020019060200280838360005b83811015610890578181015183820152602001610878565b50505050905001935050505060405180910390f35b3480156108b157600080fd5b506102b4612326565b3480156108c657600080fd5b506102b461232c565b3480156108db57600080fd5b506102b461237a565b3480156108f057600080fd5b506103016004803603602081101561090757600080fd5b5035612380565b34801561091a57600080fd5b506102b46004803603602081101561093157600080fd5b50356001600160a01b031661241d565b34801561094d57600080fd5b506102b461242f565b34801561096257600080fd5b506102b4612435565b34801561097757600080fd5b506103016004803603602081101561098e57600080fd5b503561243b565b3480156109a157600080fd5b506102b4612518565b3480156109b657600080fd5b506102b461251e565b3480156109cb57600080fd5b50610301600480360360208110156109e257600080fd5b50356001600160a01b0316612524565b6001600160a01b038116600090815260a06020908152604080832054609f909252822054610a6a9190610a6490670de0b6b3a764000090610a5e90610a3f90610a3961232c565b90612627565b6001600160a01b038816600090815260a2602052604090205490612684565b906126e4565b9061274b565b92915050565b60a06020526000908152604090205481565b60a3546001600160a01b03163314610acb5760405162461bcd60e51b8152600401808060200182810382526021815260200180612e946021913960400191505060405180910390fd5b6000610ad561232c565b609d55610ae0611cd8565b609c556001600160a01b03811615610b2757610afb816109f2565b6001600160a01b038216600090815260a06020908152604080832093909355609d54609f909152919020555b6099543414610b675760405162461bcd60e51b81526004018080602001828103825260228152602001806130106022913960400191505060405180910390fd5b60a5546040805163f784a7b760e01b815290516000926001600160a01b03169163f784a7b7916004808301926020929190829003018186803b158015610bac57600080fd5b505afa158015610bc0573d6000803e3d6000fd5b505050506040513d6020811015610bd657600080fd5b505160a554604080516375c8e9bf60e11b815290519293506000926001600160a01b039092169163eb91d37e91600480820192602092909190829003018186803b158015610c2357600080fd5b505afa158015610c37573d6000803e3d6000fd5b505050506040513d6020811015610c4d57600080fd5b505160a6549091506000908311610c675750609954610d76565b818311610d725760a45460408051631a46d32f60e01b815290516000926001600160a01b031691631a46d32f916004808301926020929190829003018186803b158015610cb357600080fd5b505afa158015610cc7573d6000803e3d6000fd5b505050506040513d6020811015610cdd57600080fd5b505190508015801590610cf85750670de0b6b3a76400008111155b610d49576040805162461bcd60e51b815260206004820152601b60248201527f57726f6e672064616f206d756c7469706c696572206c696d6974730000000000604482015290519081900360640190fd5b610d6a670de0b6b3a7640000610a5e8360995461268490919063ffffffff16565b915050610d76565b5060005b6097544210610d9557609a54610d8d9082906126e4565b609855610dd8565b609754600090610da59042612627565b90506000610dbe6098548361268490919063ffffffff16565b609a54909150610dd290610a5e858461274b565b60985550505b42609c819055609a54610deb919061274b565b6097556040805182815290517fde88a922e0d3b88b24e9623efeb464919c6bf9f66857a65e2bfcf2ce87a9433d9181900360200190a1336108fc610e2f3484612627565b6040518115909202916000818181858888f19350505050158015610e57573d6000803e3d6000fd5b5050505050565b610e666127a5565b6001600160a01b0316610e77611cf6565b6001600160a01b031614610ec0576040805162461bcd60e51b81526020600482018190526024820152600080516020613053833981519152604482015290519081900360640190fd5b60985415610eff5760405162461bcd60e51b81526004018080602001828103825260338152602001806130b86033913960400191505060405180910390fd5b8281148015610f0d57508215155b610f4c576040805162461bcd60e51b815260206004820152600b60248201526a15dc9bdb99c81a5b9c1d5d60aa1b604482015290519081900360640190fd5b60005b83811015610e57576000838383818110610f6557fe5b9050602002013511610fa85760405162461bcd60e51b8152600401808060200182810382526029815260200180612ed56029913960400191505060405180910390fd5b60aa6000868684818110610fb857fe5b905060200201356001600160a01b03166001600160a01b03166001600160a01b0316815260200190815260200160002060000154600014611040576040805162461bcd60e51b815260206004820152601d60248201527f43616e6e6f74206164642070726570757263686173657220616761696e000000604482015290519081900360640190fd5b82828281811061104c57fe5b9050602002013560aa600087878581811061106357fe5b602090810292909201356001600160a01b0316835250810191909152604001600020556110ad83838381811061109557fe5b9050602002013560a15461274b90919063ffffffff16565b60a1556110d78383838181106110bf57fe5b9050602002013560ab5461274b90919063ffffffff16565b60ab558484828181106110e657fe5b905060200201356001600160a01b03166001600160a01b03167f13293501fbf987deb63d1dceffaa787e720de4c85e6a2a5afdf86d16979d2dac84848481811061112c57fe5b905060200201356040518082815260200191505060405180910390a2600101610f4f565b60026065541415611196576040805162461bcd60e51b815260206004820152601f6024820152600080516020612e4e833981519152604482015290519081900360640190fd5b6002606555609e544210156111e0576040805162461bcd60e51b81526020600482015260196024820152600080516020612eb5833981519152604482015290519081900360640190fd5b336111e961232c565b609d556111f4611cd8565b609c556001600160a01b0381161561123b5761120f816109f2565b6001600160a01b038216600090815260a06020908152604080832093909355609d54609f909152919020555b33600090815260a26020526040902054611254906127a9565b61125c61299c565b506001606555565b60a1545b90565b6112736127a5565b6001600160a01b0316611284611cf6565b6001600160a01b0316146112cd576040805162461bcd60e51b81526020600482018190526024820152600080516020613053833981519152604482015290519081900360640190fd5b60a380546001600160a01b0319166001600160a01b0392909216919091179055565b6000611308609a5460985461268490919063ffffffff16565b905090565b6113156127a5565b6001600160a01b0316611326611cf6565b6001600160a01b03161461136f576040805162461bcd60e51b81526020600482018190526024820152600080516020613053833981519152604482015290519081900360640190fd5b60a580546001600160a01b0319166001600160a01b0392909216919091179055565b60a5546001600160a01b031681565b600260655414156113e6576040805162461bcd60e51b815260206004820152601f6024820152600080516020612e4e833981519152604482015290519081900360640190fd5b6002606555609e54421015611430576040805162461bcd60e51b81526020600482015260196024820152600080516020612eb5833981519152604482015290519081900360640190fd5b3361143961232c565b609d55611444611cd8565b609c556001600160a01b0381161561148b5761145f816109f2565b6001600160a01b038216600090815260a06020908152604080832093909355609d54609f909152919020555b611494826127a9565b50506001606555565b60a860205281600052604060002081815481106114b957600080fd5b90600052602060002001600091509150505481565b600054610100900460ff16806114e757506114e7612a28565b806114f5575060005460ff16155b6115305760405162461bcd60e51b815260040180806020018281038252602e815260200180612f55602e913960400191505060405180910390fd5b600054610100900460ff1615801561155b576000805460ff1961ff0019909116610100171660011790555b611563612a39565b61156b612aea565b60a380546001600160a01b03808b166001600160a01b03199283161790925560a480548a841690831617905560a5805492891692909116919091179055609e859055609a849055609983905560a682905560ac805460ff191660011790556224ea00609b5580156115e2576000805461ff00191690555b5050505050505050565b609a5481565b60026065541415611638576040805162461bcd60e51b815260206004820152601f6024820152600080516020612e4e833981519152604482015290519081900360640190fd5b60026065553361164661232c565b609d55611651611cd8565b609c556001600160a01b038116156116985761166c816109f2565b6001600160a01b038216600090815260a06020908152604080832093909355609d54609f909152919020555b33600090815260aa6020526040902054156116ef5760ac5460ff16156116ef5760405162461bcd60e51b81526004018080602001828103825260458152602001806130736045913960600191505060405180910390fd5b3480611733576040805162461bcd60e51b815260206004820152600e60248201526d043616e6e6f74207374616b6520360941b604482015290519081900360640190fd5b60a154611740908261274b565b60a15533600090815260a2602052604090205461175d908261274b565b33600081815260a26020908152604091829020939093558051848152905191927f9e71bc8eea02a63969f509818f2dafb9254532904319f9dbda79b67bd34a5f3d92918290030190a250506001606555565b600260655414156117f5576040805162461bcd60e51b815260206004820152601f6024820152600080516020612e4e833981519152604482015290519081900360640190fd5b6002606555609e5442101561183f576040805162461bcd60e51b81526020600482015260196024820152600080516020612eb5833981519152604482015290519081900360640190fd5b3361184861232c565b609d55611853611cd8565b609c556001600160a01b038116156112545761186e816109f2565b6001600160a01b038216600090815260a06020908152604080832093909355609d54609f9091529190205561125c61299c565b60a3546001600160a01b031681565b6118b86127a5565b6001600160a01b03166118c9611cf6565b6001600160a01b031614611912576040805162461bcd60e51b81526020600482018190526024820152600080516020613053833981519152604482015290519081900360640190fd5b60a480546001600160a01b0319166001600160a01b0392909216919091179055565b6002606554141561197a576040805162461bcd60e51b815260206004820152601f6024820152600080516020612e4e833981519152604482015290519081900360640190fd5b6002606555609e544210156119c4576040805162461bcd60e51b81526020600482015260196024820152600080516020612eb5833981519152604482015290519081900360640190fd5b60ac5460ff16611a1b576040805162461bcd60e51b815260206004820181905260248201527f4f6e6c792069662070726570757263686173657273206d6f6465206973204f4e604482015290519081900360640190fd5b33600090815260aa602052604090206001015460ff1615611a78576040805162461bcd60e51b815260206004820152601260248201527121b0b73737ba1039ba30b5b29030b3b0b4b760711b604482015290519081900360640190fd5b33600090815260aa6020526040902054611ac35760405162461bcd60e51b8152600401808060200182810382526029815260200180612fbc6029913960400191505060405180910390fd5b33600090815260aa60205260409020543414611b105760405162461bcd60e51b8152600401808060200182810382526031815260200180612efe6031913960400191505060405180910390fd5b33600090815260aa602090815260408083206001908101805460ff1916909117905560a29091529020543490611b46908261274b565b33600090815260a2602052604090205560ab54611b639082612627565b60ab5560408051828152905133917ff4650017e68313b5cc887c6c31bf2fccb37d17c7ad3805c78f6f22c9e3849163919081900360200190a2506001606555565b609b5481565b6001600160a01b0316600090815260a8602052604090205490565b6001600160a01b0316600090815260a2602052604090205490565b611be86127a5565b6001600160a01b0316611bf9611cf6565b6001600160a01b031614611c42576040805162461bcd60e51b81526020600482018190526024820152600080516020613053833981519152604482015290519081900360640190fd5b6033546040516000916001600160a01b0316907f8be0079c531659141344cd1fd0a4f28419497f9722a3daafe3b4186f6b6457e0908390a3603380546001600160a01b0319169055565b60a4546001600160a01b031681565b60a76020526000908152604090208054600182015460028301546003909301546001600160a01b0390921692909184565b60985481565b60ab5481565b60006097544210611ceb57609754611308565b504290565b609d5481565b6033546001600160a01b031690565b611d0d6127a5565b6001600160a01b0316611d1e611cf6565b6001600160a01b031614611d67576040805162461bcd60e51b81526020600482018190526024820152600080516020613053833981519152604482015290519081900360640190fd5b609e54421015611dac576040805162461bcd60e51b81526020600482015260196024820152600080516020612eb5833981519152604482015290519081900360640190fd5b60ac5460ff16611e03576040805162461bcd60e51b815260206004820181905260248201527f4f6e6c792069662070726570757263686173657273206d6f6465206973204f4e604482015290519081900360640190fd5b60ac805460ff191690556000611e2f670de0b6b3a7640000610a5e611e2661232c565b60ab5490612684565b90506000611e4a60ab5460a15461262790919063ffffffff16565b9050611e6760a154610a5e8360985461268490919063ffffffff16565b60985560a181905560a3546040516001600160a01b039091169083156108fc029084906000818181858888f19350505050158015611ea9573d6000803e3d6000fd5b506040805183815290517f633f23524f0640305e167d2acdd34280fda7e4d099f74f6f40016c1b6e6629679181900360200190a15050565b611ee96127a5565b6001600160a01b0316611efa611cf6565b6001600160a01b031614611f43576040805162461bcd60e51b81526020600482018190526024820152600080516020613053833981519152604482015290519081900360640190fd5b60998190556040805182815290517f9639dea65e74b72b1b86ccf3e4f9b6d23b88d2aad2f103d0b3afe394e67edade9181900360200190a150565b60026065541415611fc4576040805162461bcd60e51b815260206004820152601f6024820152600080516020612e4e833981519152604482015290519081900360640190fd5b60026065819055600083815260a76020526040902001544210156120195760405162461bcd60e51b815260040180806020018281038252602b815260200180612fe5602b913960400191505060405180910390fd5b600082815260a760205260409020546001600160a01b0316331461206e5760405162461bcd60e51b8152600401808060200182810382526026815260200180612f2f6026913960400191505060405180910390fd5b600082815260a760205260409020600101548111156120be5760405162461bcd60e51b8152600401808060200182810382526039815260200180612f836039913960400191505060405180910390fd5b600082815260a760205260409020600101546120da9082612627565b600083815260a7602052604090206001018190556121bf57600082815260a7602090815260408083206003015433845260a890925282208054919290612121836001612627565b8154811061212b57fe5b906000526020600020015490508060a86000336001600160a01b03166001600160a01b03168152602001908152602001600020848154811061216957fe5b600091825260208083209091019290925533815260a89091526040902080548061218f57fe5b60008281526020808220830160001990810183905590920190925591815260a79091526040902060030191909155505b60408051828152905183917ffe67007f52a1bf967323b00fd406f9028a8e8a88aec274e07a63b2fabacc64a7919081900360200190a2604051339082156108fc029083906000818181858888f19350505050158015612222573d6000803e3d6000fd5b5050600160655550565b60aa602052600090815260409020805460019091015460ff1682565b6001600160a01b038316600090815260a860205260408120546060919083908581038211156122775785810391505b60008267ffffffffffffffff8111801561229057600080fd5b506040519080825280602002602001820160405280156122ba578160200160208202803683370190505b50905060005b83811015612318576001600160a01b038916600090815260a8602052604090208054828a019081106122ee57fe5b906000526020600020015482828151811061230557fe5b60209081029190910101526001016122c0565b509795909101955050505050565b609e5481565b600060a154600014156123425750609d54611268565b61130861237160a154610a5e670de0b6b3a764000061236b60985461236b609c54610a39611cd8565b90612684565b609d549061274b565b60a65481565b6123886127a5565b6001600160a01b0316612399611cf6565b6001600160a01b0316146123e2576040805162461bcd60e51b81526020600482018190526024820152600080516020613053833981519152604482015290519081900360640190fd5b60a68190556040805182815290517ff97a17663f522a6e39a1959a585d48c02e511550942477b037e2e0de73d1db4f9181900360200190a150565b609f6020526000908152604090205481565b60995481565b609c5481565b6124436127a5565b6001600160a01b0316612454611cf6565b6001600160a01b03161461249d576040805162461bcd60e51b81526020600482018190526024820152600080516020613053833981519152604482015290519081900360640190fd5b60975442116124dd5760405162461bcd60e51b8152600401808060200182810382526058815260200180612df66058913960600191505060405180910390fd5b609a8190556040805182815290517ffb46ca5a5e06d4540d6387b930a7c978bce0db5f449ec6b3f5d07c6e1d44f2d39181900360200190a150565b60a95481565b60975481565b61252c6127a5565b6001600160a01b031661253d611cf6565b6001600160a01b031614612586576040805162461bcd60e51b81526020600482018190526024820152600080516020613053833981519152604482015290519081900360640190fd5b6001600160a01b0381166125cb5760405162461bcd60e51b8152600401808060200182810382526026815260200180612e6e6026913960400191505060405180910390fd5b6033546040516001600160a01b038084169216907f8be0079c531659141344cd1fd0a4f28419497f9722a3daafe3b4186f6b6457e090600090a3603380546001600160a01b0319166001600160a01b0392909216919091179055565b60008282111561267e576040805162461bcd60e51b815260206004820152601e60248201527f536166654d6174683a207375627472616374696f6e206f766572666c6f770000604482015290519081900360640190fd5b50900390565b60008261269357506000610a6a565b828202828482816126a057fe5b04146126dd5760405162461bcd60e51b81526004018080602001828103825260218152602001806130326021913960400191505060405180910390fd5b9392505050565b600080821161273a576040805162461bcd60e51b815260206004820152601a60248201527f536166654d6174683a206469766973696f6e206279207a65726f000000000000604482015290519081900360640190fd5b81838161274357fe5b049392505050565b6000828201838110156126dd576040805162461bcd60e51b815260206004820152601b60248201527f536166654d6174683a206164646974696f6e206f766572666c6f770000000000604482015290519081900360640190fd5b3390565b600081116127f0576040805162461bcd60e51b815260206004820152600f60248201526e043616e6e6f7420756e626f6e64203608c1b604482015290519081900360640190fd5b33600090815260a26020526040902054811115612854576040805162461bcd60e51b815260206004820152601e60248201527f43616e6e6f7420756e626f6e64206d6f7265207468616e207374616b65640000604482015290519081900360640190fd5b60a1546128619082612627565b60a15533600090815260a2602052604090205461287e9082612627565b33600090815260a2602052604090205560a95461289c90600161274b565b60a981905533600090815260a86020908152604082208054600181018255908352912001556128c9612dc4565b33815260208101829052609b546128e190429061274b565b60408083019190915233600090815260a86020522054612902906001612627565b606082810191825260a98054600090815260a76020908152604091829020865181546001600160a01b0319166001600160a01b039091161781558187015160018201558287015160028201559451600390950194909455905481518681524294810194909452838201525133927ffcc4bc9c6b8463463bcbae7de4078e3ef39ab55315563076c4061fc68ad4133792908290030190a25050565b33600090815260a060205260409020548015612a255733600081815260a060205260408082208290555183156108fc0291849190818181858888f193505050501580156129ed573d6000803e3d6000fd5b5060408051828152905133917fe2403640ba68fed3a2f88b7557551d1993f84b99bb10ff833f0cf8db0c5e0486919081900360200190a25b50565b6000612a3330612b7f565b15905090565b600054610100900460ff1680612a525750612a52612a28565b80612a60575060005460ff16155b612a9b5760405162461bcd60e51b815260040180806020018281038252602e815260200180612f55602e913960400191505060405180910390fd5b600054610100900460ff16158015612ac6576000805460ff1961ff0019909116610100171660011790555b612ace612b85565b612ad6612c25565b8015612a25576000805461ff001916905550565b600054610100900460ff1680612b035750612b03612a28565b80612b11575060005460ff16155b612b4c5760405162461bcd60e51b815260040180806020018281038252602e815260200180612f55602e913960400191505060405180910390fd5b600054610100900460ff16158015612b77576000805460ff1961ff0019909116610100171660011790555b612ad6612d1e565b3b151590565b600054610100900460ff1680612b9e5750612b9e612a28565b80612bac575060005460ff16155b612be75760405162461bcd60e51b815260040180806020018281038252602e815260200180612f55602e913960400191505060405180910390fd5b600054610100900460ff16158015612ad6576000805460ff1961ff0019909116610100171660011790558015612a25576000805461ff001916905550565b600054610100900460ff1680612c3e5750612c3e612a28565b80612c4c575060005460ff16155b612c875760405162461bcd60e51b815260040180806020018281038252602e815260200180612f55602e913960400191505060405180910390fd5b600054610100900460ff16158015612cb2576000805460ff1961ff0019909116610100171660011790555b6000612cbc6127a5565b603380546001600160a01b0319166001600160a01b038316908117909155604051919250906000907f8be0079c531659141344cd1fd0a4f28419497f9722a3daafe3b4186f6b6457e0908290a3508015612a25576000805461ff001916905550565b600054610100900460ff1680612d375750612d37612a28565b80612d45575060005460ff16155b612d805760405162461bcd60e51b815260040180806020018281038252602e815260200180612f55602e913960400191505060405180910390fd5b600054610100900460ff16158015612dab576000805460ff1961ff0019909116610100171660011790555b60016065558015612a25576000805461ff001916905550565b604051806080016040528060006001600160a01b03168152602001600081526020016000815260200160008152509056fe50726576696f7573207265776172647320706572696f64206d75737420626520636f6d706c657465206265666f7265206368616e67696e6720746865206475726174696f6e20666f7220746865206e657720706572696f645265656e7472616e637947756172643a207265656e7472616e742063616c6c004f776e61626c653a206e6577206f776e657220697320746865207a65726f20616464726573734f6e6c792072657761726473446973747269627574696f6e20636f6e747261637443616e6e6f7420646f207468697320616374696f6e2079657400000000000000416d6f756e7420746f206265206164646564206d7573742062652067726561746572207468616e2030507265707572636861736572732073686f756c64207374616b65207468652077686f6c6520657861637420616d6f756e744f6e6c79206f776e6572206f6620756e626f6e64696e672069642063616e20756e7374616b65496e697469616c697a61626c653a20636f6e747261637420697320616c726561647920696e697469616c697a656443616e6e6f7420756e7374616b65206d6f7265207468616e2072656d61696e696e6720616d6f756e7420696e20756e626f6e64696e672069644f6e6c7920507265707572636861736572732063616e2063616c6c20746869732066756e6374696f6e43616e6e6f7420756e7374616b65206265666f726520756e626f6e64696e6720706572696f6420656e647357686f6c652072657761726473416d6f756e742073686f756c642062652073656e74536166654d6174683a206d756c7469706c69636174696f6e206f766572666c6f774f776e61626c653a2063616c6c6572206973206e6f7420746865206f776e6572507265707572636861736572732063616e206e6f726d616c6c79207374616b65206f6e6c792069662070726570757263686173657273206d6f6465206973206e6f74204f4e43616e6e6f742061646420707265707572636861736572732061667465722072657761726473206172652070726f7669646564a26469706673582212201407435977b845c4df7009a2c4af65b8dfded08f64c4015c9591454b9a45e05364736f6c63430007060033",
  "linkReferences": {},
  "deployedLinkReferences": {}
}